{
  "contractName": "Suggestion",
  "abi": [
    {
      "inputs": [],
      "payable": false,
      "stateMutability": "nonpayable",
      "type": "constructor"
    },
    {
      "anonymous": false,
      "inputs": [
        {
          "indexed": false,
          "name": "user",
          "type": "address"
        },
        {
          "indexed": false,
          "name": "hash",
          "type": "string"
        }
      ],
      "name": "suggestionAdded",
      "type": "event"
    },
    {
      "constant": false,
      "inputs": [
        {
          "name": "_name",
          "type": "string"
        },
        {
          "name": "_hash",
          "type": "string"
        }
      ],
      "name": "addSuggestion",
      "outputs": [],
      "payable": false,
      "stateMutability": "nonpayable",
      "type": "function"
    },
    {
      "constant": true,
      "inputs": [],
      "name": "getHash",
      "outputs": [
        {
          "name": "",
          "type": "string"
        }
      ],
      "payable": false,
      "stateMutability": "view",
      "type": "function"
    },
    {
      "constant": true,
      "inputs": [],
      "name": "getAddresses",
      "outputs": [
        {
          "name": "",
          "type": "address[]"
        }
      ],
      "payable": false,
      "stateMutability": "view",
      "type": "function"
    },
    {
      "constant": true,
      "inputs": [
        {
          "name": "_user",
          "type": "address"
        }
      ],
      "name": "getSuggestionByAddress",
      "outputs": [
        {
          "name": "name",
          "type": "string"
        },
        {
          "name": "hash",
          "type": "string"
        }
      ],
      "payable": false,
      "stateMutability": "view",
      "type": "function"
    },
    {
      "constant": true,
      "inputs": [],
      "name": "isOwner",
      "outputs": [
        {
          "name": "",
          "type": "bool"
        }
      ],
      "payable": false,
      "stateMutability": "view",
      "type": "function"
    }
  ],
  "bytecode": "0x608060405234801561001057600080fd5b50336000806101000a81548173ffffffffffffffffffffffffffffffffffffffff021916908373ffffffffffffffffffffffffffffffffffffffff160217905550610afb806100606000396000f30060806040526004361061006d576000357c0100000000000000000000000000000000000000000000000000000000900463ffffffff16806310115d7a146100725780638f32d59b14610121578063a39fac1214610150578063c367a7f5146101bc578063d13319c4146102e4575b600080fd5b34801561007e57600080fd5b5061011f600480360381019080803590602001908201803590602001908080601f0160208091040260200160405190810160405280939291908181526020018383808284378201915050505050509192919290803590602001908201803590602001908080601f0160208091040260200160405190810160405280939291908181526020018383808284378201915050505050509192919290505050610374565b005b34801561012d57600080fd5b506101366105e4565b604051808215151515815260200191505060405180910390f35b34801561015c57600080fd5b5061016561063b565b6040518080602001828103825283818151815260200191508051906020019060200280838360005b838110156101a857808201518184015260208101905061018d565b505050509050019250505060405180910390f35b3480156101c857600080fd5b506101fd600480360381019080803573ffffffffffffffffffffffffffffffffffffffff169060200190929190505050610724565b604051808060200180602001838103835285818151815260200191508051906020019080838360005b83811015610241578082015181840152602081019050610226565b50505050905090810190601f16801561026e5780820380516001836020036101000a031916815260200191505b50838103825284818151815260200191508051906020019080838360005b838110156102a757808201518184015260208101905061028c565b50505050905090810190601f1680156102d45780820380516001836020036101000a031916815260200191505b5094505050505060405180910390f35b3480156102f057600080fd5b506102f961092e565b6040518080602001828103825283818151815260200191508051906020019080838360005b8381101561033957808201518184015260208101905061031e565b50505050905090810190601f1680156103665780820380516001836020036101000a031916815260200191505b509250505060405180910390f35b600080604080519081016040528085815260200184815250600160003373ffffffffffffffffffffffffffffffffffffffff1673ffffffffffffffffffffffffffffffffffffffff16815260200190815260200160002060008201518160000190805190602001906103e7929190610a10565b506020820151816001019080519060200190610404929190610a10565b5090505060019150600090505b6002805490508110156104a1573373ffffffffffffffffffffffffffffffffffffffff1660028281548110151561044457fe5b9060005260206000200160009054906101000a900473ffffffffffffffffffffffffffffffffffffffff1673ffffffffffffffffffffffffffffffffffffffff16141561049457600091506104a1565b8080600101915050610411565b811561050e5760023390806001815401808255809150509060018203906000526020600020016000909192909190916101000a81548173ffffffffffffffffffffffffffffffffffffffff021916908373ffffffffffffffffffffffffffffffffffffffff160217905550505b7f7900a817c2c90ae0a27e78651f31d03fd7c927f967e20f2e5c522d57b1ea72333384604051808373ffffffffffffffffffffffffffffffffffffffff1673ffffffffffffffffffffffffffffffffffffffff16815260200180602001828103825283818151815260200191508051906020019080838360005b838110156105a3578082015181840152602081019050610588565b50505050905090810190601f1680156105d05780820380516001836020036101000a031916815260200191505b50935050505060405180910390a150505050565b60008060009054906101000a900473ffffffffffffffffffffffffffffffffffffffff1673ffffffffffffffffffffffffffffffffffffffff163373ffffffffffffffffffffffffffffffffffffffff1614905090565b60606000809054906101000a900473ffffffffffffffffffffffffffffffffffffffff1673ffffffffffffffffffffffffffffffffffffffff163373ffffffffffffffffffffffffffffffffffffffff1614151561069857600080fd5b600280548060200260200160405190810160405280929190818152602001828054801561071a57602002820191906000526020600020905b8160009054906101000a900473ffffffffffffffffffffffffffffffffffffffff1673ffffffffffffffffffffffffffffffffffffffff16815260200190600101908083116106d0575b5050505050905090565b60608061072f610a90565b6000809054906101000a900473ffffffffffffffffffffffffffffffffffffffff1673ffffffffffffffffffffffffffffffffffffffff163373ffffffffffffffffffffffffffffffffffffffff1614151561078a57600080fd5b600160008573ffffffffffffffffffffffffffffffffffffffff1673ffffffffffffffffffffffffffffffffffffffff168152602001908152602001600020604080519081016040529081600082018054600181600116156101000203166002900480601f01602080910402602001604051908101604052809291908181526020018280546001816001161561010002031660029004801561086d5780601f106108425761010080835404028352916020019161086d565b820191906000526020600020905b81548152906001019060200180831161085057829003601f168201915b50505050508152602001600182018054600181600116156101000203166002900480601f01602080910402602001604051908101604052809291908181526020018280546001816001161561010002031660029004801561090f5780601f106108e45761010080835404028352916020019161090f565b820191906000526020600020905b8154815290600101906020018083116108f257829003601f168201915b5050505050815250509050806000015192508060200151915050915091565b6060600160003373ffffffffffffffffffffffffffffffffffffffff1673ffffffffffffffffffffffffffffffffffffffff1681526020019081526020016000206001018054600181600116156101000203166002900480601f016020809104026020016040519081016040528092919081815260200182805460018160011615610100020316600290048015610a065780601f106109db57610100808354040283529160200191610a06565b820191906000526020600020905b8154815290600101906020018083116109e957829003601f168201915b5050505050905090565b828054600181600116156101000203166002900490600052602060002090601f016020900481019282601f10610a5157805160ff1916838001178555610a7f565b82800160010185558215610a7f579182015b82811115610a7e578251825591602001919060010190610a63565b5b509050610a8c9190610aaa565b5090565b604080519081016040528060608152602001606081525090565b610acc91905b80821115610ac8576000816000905550600101610ab0565b5090565b905600a165627a7a72305820438578a3f431cc3f47a57d41145b41a51c6455d8a23b818247f827085ecac23d0029",
  "source": "pragma solidity ^0.4.23;\n\ncontract Suggestion {\n    address private owner;\n    mapping(address => User) private users;\n    address[] private addresses;\n\n    event suggestionAdded(address user, string hash);\n\n    struct User {\n        string name;\n        string hash;\n    }\n\n    modifier onlyOwner () {\n        require(msg.sender == owner);\n        _;\n    }\n\n    constructor () public {\n        owner = msg.sender;\n    }\n\n    function addSuggestion(string _name, string _hash) public {\n        users[msg.sender] = User({name : _name, hash : _hash});\n        bool insert = true;\n        for (uint i = 0; i < addresses.length; i++) {\n            if (addresses[i] == msg.sender) {\n                insert = false;\n                break;\n            }\n        }\n        if (insert) {\n            addresses.push(msg.sender);\n        }\n        emit suggestionAdded(msg.sender, _hash);\n    }\n\n    function getHash() public view returns (string) {\n        return users[msg.sender].hash;\n    }\n\n    function getAddresses() public view onlyOwner returns (address[]) {\n        return addresses;\n    }\n\n    function getSuggestionByAddress(address _user) public view onlyOwner returns (string name, string hash) {\n        User memory user = users[_user];\n        name = user.name;\n        hash = user.hash;\n    }\n\n    function isOwner() public view returns (bool) {\n        return msg.sender == owner;\n    }\n}",
  "sourcePath": "/home/mesi/Blockchain/infura/contracts/Suggestion.sol",
  "compiler": {
    "name": "solc",
    "version": "0.4.24+commit.e67f0147.Emscripten.clang"
  },
  "schemaVersion": "2.0.1",
  "updatedAt": "2018-09-14T14:48:37.065Z"
}